:10000000002000203D280000692800006928000029
:10001000692800006928000069280000692800009C
:10002000692800006928000069280000692800008C
:100030006928000069280000692800001D030000ED
:10004000692800006928000069280000692800006C
:1000500031060000692800006928000069280000B6
:10006000692800006928000069280000692800004C
:10007000F9240000692800006928000069280000B0
:10008000692800006928000069280000692800002C
:100090006928000010B5064C2378002B07D1054BCA
:1000A000002B02D0044800E000BF0123237010BDE4
:1000B00088000020000000008C3B000008B5084BC1
:1000C000002B03D00748084900E000BF0748036839
:1000D000002B03D0064B002B00D0984708BDC0462C
:1000E000000000008C3B00008C00002084000020F9
:1000F00000000000164B002B00D1144B9D464022FF
:1001000092029A1A924600218B460F461348144ACF
:10011000121A03F086F90F4B002B00D098470E4BB4
:10012000002B00D098470020002104000D000D484E
:10013000002802D00C4800E000BF03F043F9200083
:10014000290000F0F3F803F027F9C046000008008A
:1001500000200020000000000000000088000020B7
:10016000280A0020000000000000000038B520230D
:10017000041C0D1E01DA4D422D232370FA210023A9
:100180006371281C890002F0CDFC081C642102F078
:1001900073FC2E233030E37020710D49281C02F0CF
:1001A000C1FC081CFA21890002F066FC3030A07006
:1001B0000849281C02F0B6FC081C054902F05CFC4A
:1001C0003030C0B2302800D12020607038BDC04629
:1001D00010270000A086010010B501F025FD0028C1
:1001E00000D0FEE701F0DCFA002800D0FEE7074C63
:1001F000201C01F097FB002800D0FEE7044BA06014
:100200000449201C636001F0FFFC10BDA400002025
:10021000FFFFFF00DC34000073B5114C061C201CEE
:100220000D1C01F0B6FB002D08D0732300930023B2
:100230000193201C0B49102205230BE0052300939A
:10024000002E03D10196201C074902E007490195C1
:10025000201C202201F097FC01F0DEFA73BDC0469D
:10026000A40000205C3400006934000089340000E0
:10027000F0B589B01D4C051C201C03920F1C01F029
:1002800088FB291C05A8FFF771FF05A803F0D1F82A
:1002900000250326021C062305A900960195201CB3
:1002A00001F071FC391C05A8FFF760FF05A803F0F9
:1002B000C0F85723021C05A900960195201C01F0E7
:1002C00062FC039905A8FFF751FF05A803F0B1F8F8
:1002D0001423021C009305A906230195201C01F09C
:1002E00052FC01F099FA09B0F0BDC046A40000200C
:1002F00008B5034B1868034B1B68984708BDC046F8
:10030000D0000020DC000020024A01231370024AC2
:10031000137070470100002000000020024B1A6893
:1003200001321A607047C046D8000020F0B599B07D
:10033000A54A0CAC0294231C23CA23C331CA31C37F
:10034000A24B1B681B0E812B07D8A14AA14B1A6038
:10035000A14BA24A19680A401A60A148012100F085
:100360002BFBA048012100F027FB022008210422DA
:10037000012300F023FE022000210422012300F0CB
:100380001DFE01210A1C0220002300F017FE694611
:100390001F23002609ADCB7708AA21236B4412AC9A
:1003A0000E774E778E771670281C311C09228E4FDF
:1003B0001E7003F036F80922201C311C03F031F8BE
:1003C0008A48012100F0F8FA381C07A900F09CF9CE
:1003D0000420092168702971381C291C00F0B1F92A
:1003E000381C0422211C2271A67000F0AAF9804B4F
:1003F00001257B637B69C0212B437B617D4BA94039
:1004000010225A501A60FFF7E7FE01F03DFF0CA8DA
:1004100001F0F8FD02F0A4FA6B4B221C183323CB39
:1004200023C223CB23C2744D211C281C01F062F887
:1004300003236B65714B281CAB64052101F02EF87A
:100440008021321C0C9802F0E3F86D4C0590201CC2
:1004500001F0F8FEFA226B4B20680121D2000096D1
:1004600001F05EFF684800F0A7FBFA21890002F066
:10047000B5FA664B01383C1C2F1C984217D8644BC8
:10048000644A5860106AC0210002000A090601434C
:10049000116207229E6005981A60311CFFF7BCFEAE
:1004A000301C00F063FD5C4B0120187072E0FEE729
:1004B000616A281C049109AB802107AA02F07AF82E
:1004C000099D12AB002D77DA2D226E421A706B4611
:1004D00000224D33FA211A70301C890002F022FBF1
:1004E000081C642102F0C8FA13AB303018702E22B9
:1004F000013B1A70301C494902F014FB081CFA2118
:10050000890002F0B9FA6B464A333030187044491A
:10051000301C02F007FB081C404902F0ADFA3030F5
:100520006B46C0B2493330284AD0187000233A696C
:100530005006FCD512AA995C2F4A01335163052B52
:10054000F5D1384AFA210023C900039813706A18BC
:10055000904202D1304A051C137003952E4B1A7835
:10056000002A14D00022049D1A700A2207996A43B7
:100570000998FFF77DFE012002F00EFA2A4B196858
:100580001A68521A182AFBD9012002F005FA002035
:1005900000F0ECFC234B1B78002BDFD0234E002314
:1005A000337001230C9D63603078C0B2002800D006
:1005B0007EE700F0DBFCF7E720221A702E1C86E7AE
:1005C00020221A70B2E7C046A8340000FC81E00F78
:1005D0000500000418600C40E4800C40FFFFFFFEA3
:1005E00000820400004204000020004000A2040039
:1005F0007C1F000000E100E000C40040FF1F00007D
:10060000100A00200903000050000200FFFFFF0055
:1006100010E000E000ED00E00100002010270000E5
:10062000A086010000000020D8000020D400002097
:10063000034B9A691A62034B01221A707047C04635
:1006400000200040D400002030B585B00C4B141CB5
:1006500018600C4B03A8196001F0F4FDFA20211C6E
:10066000800002F0BBF9039D0024021C0094281CAA
:100670000121054B01F054FE201C05B030BDC046E1
:10068000DC000020D0000020F102000030B5041C86
:10069000002A02D01022194B00E0194B656B1D4057
:1006A000062926D8081C02F08FF904080C1524240A
:1006B0001F0014494868496806E0124948684B68B9
:1006C0000BE01049886889687F231940FE23DB010D
:1006D000034007E00B4988688B684100490E5B02C4
:1006E00009025B0E0B4305E0064BD9687F230B40E4
:1006F00000E0002393401D43656330BDFFFF808011
:100700008080FFFFB081E00F10B50A2343600A78B4
:100710004B7812061B0113438A78CC781343FE22D0
:100720002404D20322400C791343FE222402D20176
:10073000224013434A79002A01D008221343036060
:1007400010BD38B502230C1C436000228978051CBB
:10075000FFF79CFF6278237812051B071343227969
:1007600012021343E27812011343A279002A02D045
:10077000802252041343E279002A01D00422134359
:100780006279002A01D002221343227A002A01D082
:1007900001221343A27812041343EB6038BD00001A
:1007A000104BE0225B69D2008021134089008B420C
:1007B00016D007D8002B0FD08022520093420DD1C3
:1007C00009480EE0C02189008B4203D0934205D135
:1007D000064806E0064804E0064802E0002000E083
:1007E0000548704700800C40C0D8A700406F40010A
:1007F00040420F00809FD500C0CF6A0070B50B4B00
:100800000B4AD96BDA635A680A4A0B4C80180022EB
:100810005D68161C8442564107208543281C3043DE
:100820005860914200D0DA6370BDC04600000C40B1
:10083000711B0000FFDB0BFFFF23F40008B502F083
:1008400015F8FFF7DBFF08BD034B5A6DD10702D443
:100850001A6D0242FCD1704700800C4000B5031CA9
:100860000006000F0138072823D802F0ADF8042253
:10087000220A0D221017104B1868C003400F0130D8
:1008800018E00D4B986807E00B4B586804E00B4AE2
:1008900093420ED1084B986E0F2305E0084A93420D
:1008A00007D1054B186F0323184001238340181C00
:1008B00000E0012000BDC04600800C407006100022
:1008C0008007140010B5031C0006000F01380C1C33
:1008D000072867D802F078F808666604226639505F
:1008E0008022120600230BE0FFF7A8FF2E4B013CED
:1008F00018682E49A203041C0C4014431C601FE01E
:10090000144202D101335208FAE7274A1F209168A6
:10091000C31A0F2081430B43936043E0FFF78EFF20
:10092000802212060023144202D101335208FAE752
:100930001D4A1F205168C31A0F2081430B43536087
:1009400001F0F0FFFFF75AFF2CE0194A934229D13A
:100950000420FFF779FF802212060023144202D1FF
:1009600001335208FAE7104A1F20916EC31A0F2074
:1009700081430B43936615E00E4A934212D1402007
:10098000FFF762FF802212060023144202D10133D6
:100990005208FAE7044A1F20116FC31A032081434B
:1009A0000B43136710BDC04600800C40FF3FFEFFA5
:1009B000700610008007140070B5051C0005000FBC
:1009C00001380E1C092829D801F0FEFF1808052857
:1009D000280B0E1128150020114C11E00020114C9D
:1009E0000EE00120104C0BE01020104C08E080239A
:1009F00058000F4C04E000200E4C01E00E4C00208B
:100A0000ED03ED0E002801D0FFF71EFF2368012241
:100A1000AA409343AE401D1C3543256070BDC046BF
:100A200040800C4044800C4058800C4060800C405A
:100A300064800C4078800C4008800C4000B50F2387
:100A400018400138062861D801F0BEFF061F314367
:100A500060044B0007205EE02F4BDA6A2F4B1340F7
:100A600080225201934253D003D804208022824036
:100A700007E080220220920193424CD080220A207B
:100A8000D204934247D0052045E0234B0322986AC5
:100A9000104002283FD0904214D0012801D1101CF0
:100AA00039E09B6A0B20DA0335D4012033E01A4A7F
:100AB0000C23916A0B40082B2CD00C2B02D0042B5A
:100AC00002D125E0062026E0936A0B20DA0222D428
:100AD000EBE7114B986A30231840102818D02038C3
:100AE0000EE00D4BE020DB6AC002184080239B0221
:100AF00098420DD08023DB02984205D0084BC018E5
:100B000043425841013006E0092004E0002002E0A1
:100B1000032000E0022000BD00800C40003C0004E7
:100B20000000FFFF10B5041CFFF788FF1E4A944227
:100B30000CD01E4B9C420DD01D4B9C4201D0031C7F
:100B40000CE01C4B996A03230B4007E0194B9B6A8E
:100B50001B0702E0174B9B6A9B069B0F0020032B91
:100B600020D8181C01F030FF0C02050801F0EBFE44
:100B700018E001F0EFFE15E001F0D4FE400811E0AE
:100B80000B498C4202D0002094420BD1094B9A6A47
:100B900014238C4200D110230020DA40824201D07D
:100BA00001F0D4FE10BDC04603001A0004001C0072
:100BB0000200180000800C4010B5F8239B03184079
:100BC000E0231B0398425CD010D880239B029842FC
:100BD00034D002D800284AD068E08023DB02984253
:100BE00021D0C0231B0398423AD05FE0C0235B03AF
:100BF000984226D00ED880235B03984223D0A023AE
:100C00005B03984252D12A48FFF78CFF294B1A6F99
:100C100003231EE0D0235B0398421DD080239B0357
:100C2000984231D042E0234C01F024FE2168C903F0
:100C3000490F013101F0D2FEA26809E001F072FE15
:100C400035E01D4809E01C48FFF76CFF194B9A6E10
:100C50000F231340D8402AE01548FFF763FF26E032
:100C60001648FFF7EBFE07280BD008281ED101F02D
:100C700001FE104B1968C903490F013101F0AEFEA6
:100C800015E0FFF78DFD12E00D48FFF7D7FE0328B2
:100C900006D0082807D0022808D101F05BFE06E044
:100CA00001F051FE03E001F0E5FD00E0002010BD81
:100CB00003001A0000800C400200180006000C001F
:100CC0000733200038B5052830D801F07DFE0F0B22
:100CD0001B030715012302201C1C16E020201023F3
:100CE000052412E08020402307240EE0802080238A
:100CF00080005B00092408E0802080230001DB00E5
:100D0000162402E0082004230324094D00290AD0F8
:100D10002B62002A08D00123A3401C1C054B1B6832
:100D20002342FBD000E0286200F03EF938BDC04607
:100D300000800C402C800C4038B50F250540681E03
:100D40000C1C062800D9ACE001F03EFE042B2B66FB
:100D5000ABAB8200881E082800D9A2E001F034FE67
:100D60000510080AA1A1A1A10D000020042409E09A
:100D7000022003E00320012404E00520041C01E01C
:100D80000120032401210A1CFFF79CFFFFF756FDF9
:100D9000444B5C6200F008F901F0C4FDFFF72EFD42
:100DA0007FE0481E0A287CD801F00EFE0608107B62
:100DB0007B187B7B7B7B2000002318E001210A1C31
:100DC0000020FFF77FFF0023022211E00120021C18
:100DD000011CFFF777FF0023012209E0324B0422B8
:100DE00019680A431A600023032201E0012300224C
:100DF0002C49022D07D18C6A2C481B042040024349
:100E00001A438A624DE092001B05886A1343284A00
:100E1000104003438B6244E0022905D0032909D026
:100E200001293ED100240BE0012100200A1CFFF71C
:100E300049FF05E00120011C021CFFF743FF0124CC
:100E4000184B30219A6A24018A4314439C6228E09B
:100E500003290FD0092919D0022922D101210A1C06
:100E60000020FFF72FFF0F4B40225A62DA6AD103AE
:100E7000FCD516E00120021C011CFFF723FF094BE3
:100E800060225A62DA6A9103FCD50AE001210A1C49
:100E90000520FFF717FF034B80225A62DA6A5103DD
:100EA000FCD538BD00800C4040800C40FCFFFEFFAC
:100EB000F3FFEFFF70B5284A284BD46FD367284B58
:100EC00001211B68102018400C40402519401D408E
:100ED0000843284304251D40284380256D001D40FC
:100EE0009E022843151CF20F920210431D4A106205
:100EF0001D4803408020400183420ED004D880204A
:100F00000001834213D01DE080208001834209D07C
:100F10008020C00483420FD014E0D36A1806FCD5A9
:100F200003200DE0D36A9805FCD5042008E0D36ABD
:100F30001807FCD5022003E0D36A5802FCD505202F
:100F4000084B5862002901D102231362002C01D002
:100F50000023EB6770BDC04608800C400E580000AF
:100F6000E000002000800C40003C000408B50B4B62
:100F70000421DA6A0A4B1A600A4B1A690A431A6199
:100F800030BF002802D0FFF795FF05E0044B1B6837
:100F90005A0501D401F0C6FC08BDC04600800C40D3
:100FA000E000002000ED00E0024BDA6A024B1A601C
:100FB0007047C04600800C40E0000020F0B5002AD9
:100FC0000CD0012524248D404443002B03D0164E21
:100FD000A419256102E0154EA41965602424444338
:100FE000072903D8124D64198D0004E0114EA4198D
:100FF000114E8D19AD0027680F26AE40B743161C61
:10100000AE403D1C35432560002A0CD1012424222A
:101010008C404243002B03D0034BD218146102E0F2
:10102000024D52195460F0BD006000401060004055
:101030000460004008600040F8FFFF3F70B5041CEA
:10104000151C1E1C002A1ED002680F4B1A4002609D
:1010500002681340320213430360002903D10B4896
:10106000FFF7AAFD011C2368094BA800081A995D27
:10107000694301F0B3FC236801389A0702D50028C0
:1010800000D10120206170BDFFFCFFFF4081040002
:10109000D834000070B5002343630C4B0222036375
:1010A0000368012693434A780D1C7240B2401343F3
:1010B00003600B7BAA684968041CFFF7BFFF236825
:1010C0002A78B3431343236070BDC046CFFF0100AD
:1010D000F0B5894A904200D00AE1884B9E681F789B
:1010E0005C881979C020956AC00005420AD0197140
:1010F0005C80FD21A80500D5EAE0690500D4E8E0A0
:10110000FE21E5E0082F00D9DFE0381C01F05CFC8F
:10111000051B424F677697ABD300708819715C80CE
:101120003188C40604D50620090A0140F02004E0F5
:10113000FE242140850701D50120014301201870BC
:1011400051625060C7E08020054200D07AE040271D
:101150003D4201D101207FE0176377880225664870
:10116000AC46FD0606D519716146197031785C8070
:101170004162B0E065462F4273D05C80197107244C
:10118000C9001C7076183189012900D0A3E008211C
:101190004160A0E08020054254D1402702203D421A
:1011A0005AD075881763032705429BD159E05C80AC
:1011B000748819713188E00605D50620090A0140B6
:1011C000F020014301E0FE2001400420044201D050
:1011D0000124214318700120506051627BE080207F
:1011E00005422FD1402704203D4235D07588176332
:1011F000054236D019715C8007216BE0C8003018B9
:101200000589A54213D8748801310420C9B2204051
:1012100002D00024032765E701252C4002D0588026
:10122000197138E0012900D85CE75C80F8E7197192
:101230004168601C095D5880516206214AE08020A7
:10124000054205D01971FF215C801063597022E0BE
:101250004020054204D1062018705C8019713AE0E4
:10126000106305273EE7072018705C801971AC06F3
:1012700031D5C900761830895C88D569844203D29B
:101280007168661C5E800D555988814208D301281B
:1012900001D10821516008211970022151601AE022
:1012A00004245460012816D00138814213D1124918
:1012B000082048600FE0197180210820490018704B
:1012C0005C800D4207D0116303E019715C80FB2143
:1012D00059700921197019780120092909D10021B3
:1012E000516301229A56824200D15970587800E029
:1012F000FC2040B2F0BDC04600A00040E400002049
:1013000010B5174B984201D0FC2026E09A68D00710
:1013100001D520225A604A88900702D50889002802
:10132000F2D0500702D50A8A002AEDD00D4A0020DB
:10133000012410711070547050809160C0225A6066
:101340009A6A910601D5064AD269074A04481A6387
:10135000FC22D2005A63FFF7BBFE40B210BDC0466C
:1013600000A00040E4000020CFFF0100002804D0CE
:10137000012805D1034BD86803E0024B986800E0D0
:101380000020704700000840002803D0012803D146
:10139000024B00E0024B19607047C0460C00084049
:1013A00008000840034B01211A688A431043186063
:1013B0007047C04600000840034B002802D00122BD
:1013C0001A6200E018627047000008404278037813
:1013D000002A01D0022213438278002A01D004227D
:1013E0001343014A136070470000084008B500200D
:1013F000FFF7D8FF0120FFF7D5FF08BD70B5051C2A
:10140000161C081C1C1C002902D11348FFF7D4FB32
:10141000202C0CD003D81023002C09D01BE0402C2A
:1014200003D00423602C03D015E0062300E008233A
:10143000311C594380004B08181801F0CFFA074BB4
:101440000438800118402B68602293432B602B687E
:101450001C432C60686170BD40810400C0FF1F0008
:1014600038B5041C151C081E02D10948FFF7A4FB5F
:101470006B1E40001818291C01F0B0FA054B8001C2
:10148000403862691840044B13401843606138BD0E
:101490004081040000FF1F003F00E0FF05238B4355
:1014A0005B00C360C16070470D4B0E4AC3600023F0
:1014B000036042600C4A83604361C36482640B4AE8
:1014C0004365904202D00A49884200D10365836592
:1014D000904202D0064B984201D10023C365704769
:1014E000AA0E000005100000F91F000000C0004017
:1014F00000C4004038B50C1C051CFFF7D5FFA37CC9
:10150000002B04D02A688023DB0513432B60E37C87
:10151000002B03D0237D10221343AB65228A637B0B
:10152000281C1343E289616813436B60A268237B24
:10153000FFF764FF2378EB6038BD38B50D1C041C41
:10154000FFF7B2FF2B8A01221343AA7B2168501EAA
:10155000824192020B43134323602B7D2268591E64
:101560008B415B0713432360AB7C002B03D0EB7CE8
:1015700010221343A3652A7B80235B01134363601E
:10158000201C6968AA68FFF76BFF6B7B002B01D0FA
:101590001023E3602B78E36038BD03695A06FCD55D
:1015A0004163704703695A06FCD5C1637047000068
:1015B000044B1A780123002A02D0034B0360002356
:1015C000181C70473001002024010020F0B5051CD4
:1015D0000C4804780120002C13D00B4CAE1827883F
:1015E0000420BE420DDC6788CE18BE4209DC05200F
:1015F000002A06D0002B04D0A580E18022816381DF
:101600000020F0BD3001002024010020F0B587B09B
:10161000021C504804780120002C00D198E04E4C68
:101620002468002C00D193E04C48457C002D00D06C
:101630008DE08568007CED080395012801D05842B3
:101640004341581E8341DBB205935B42DBB20293F8
:10165000434B039EDB880025C91889B24E43049191
:10166000A61901950D9D002D6FD03D4B0D9D1C8938
:10167000A41AAC4200D92C1C0D9D2D1B0D959D88E4
:101680005519ADB2072C21D80598641900280ED041
:10169000A54245D207222A40EB080121F3189140C8
:1016A0000A1C197801350A431A70ADB2F0E7A54259
:1016B00036D207212940EB080122F3188A40111C79
:1016C0001A7801358A431A70ADB2F0E707232B4030
:1016D000ED087519002B0CD001229A402878013AA8
:1016E0000299D2B2914302400A43083B2A70E4189F
:1016F0000135E70807D0281C02993A1C01F091FE39
:10170000FB00E41AED19002C0AD00123A3401C1C95
:10171000013C2B780299E4B2A3430C401C432C708B
:10172000019D04980F4B29184A111F209200014077
:101730000120D5588840011C2943019DD150013515
:101740000195039D002276198CE7281C00E00A20F1
:1017500007B0F0BD30010020F4000020F8000020A8
:1017600024010020140A002070B50A4C051C0A4808
:10177000231CC26841688669B04722680B20002A92
:1017800006D02A600548FF21102201F04AFE002001
:1017900070BDC046F4000020F8000020140A0020AC
:1017A000F7B5194E0020337883422BD100F03CFA74
:1017B000002827D1154D291C00F04CFA002821D112
:1017C000134F381CFFF7D0FF041E1BD13B680B20C2
:1017D000002B17D0EA68696890B28FB2021C7A4376
:1017E0000C4B211C588058811F809C80DC801F81FD
:1017F00001233370201C01920094221C231CFFF74C
:1018000005FF201CFEBDC04630010020F80000206E
:10181000F400002024010020F0B585B0234B002403
:101820009B680126DB080293214B271C1D681F487B
:10183000E319C2680393934220D201222A4001D0C7
:10184000013412E0002C0FD0029B1A497B43096837
:10185000C918436800970194046AA047002823D15F
:10186000039F041C013700E00137E3196D08DA0615
:10187000DDD10F4BB200D5580136D8E7002C06D188
:101880000B480021102201F0CCFD00200CE0029B4F
:10189000084A7B4311680022C918436800970194E5
:1018A000046AA0470028EBD005B0F0BDF800002086
:1018B000140A0020F4000020F7B5051C0C1C0028B9
:1018C0002ED000292CD00F688A680420974228DA8D
:1018D000E36849680193994223DA2E68B088844608
:1018E000032067451DDBF38899421ADB3389934255
:1018F00017DD7689019B9E4213DD89B2B8B2CB1801
:1019000082180132013392B29BB2FFF75FFE216869
:101910006268A368E468E960AC612A616B6100E019
:101920000520FEBD30B587B00524051E1CD0002360
:1019300043600F4B836001A8FFF73AFE041E13D1EA
:10194000019B02901A882B605B880390013A013B4F
:10195000281C02A904920593FFF7AEFF041E03D1D1
:10196000281C044900F050F9201C07B030BDC046C7
:10197000FFFFFF000C38000008B5031C0520002BFA
:1019800006D01B6800201A88011C5B88FFF71EFE2A
:1019900008BD37B50521041E13D04568FFF7ECFFDD
:1019A000011E0ED120682A0C2B0AEDB20095448945
:1019B0000089D2B26043DBB20190081CFFF726FE1B
:1019C000011C081C3EBDF7B50524051C0F1C161C88
:1019D000002812D00C3000F02DF8012400280CD083
:1019E000AD68B8B22A0C2B0AEDB20194B1B2D2B2F2
:1019F000DBB20095FFF70AFE041C201CFEBDF7B504
:101A000005240F1C161C1D1C002811D00C3000F0E2
:101A100011F8012400280BD02A0C2B0AEDB20194F6
:101A2000B8B2B1B2D2B2DBB20095FFF7EFFD041C41
:101A3000201CFEBD10B5031E10D01C680020A14262
:101A40000CDB9C68A14209DC59688A4206DBDB6832
:101A5000D00FD91793424841C0B2FFE710BDF0B58F
:101A600087B004930CAB1B78041C0392059300D140
:101A700086E00D1C203DEBB202205E2B00D980E0F9
:101A8000231C28331B78ADB2834209D13A2906D0F2
:101A90000B25202904D00D1C303DADB200E00A25F5
:101AA000238C0220AB426CDDE06900270290019795
:101AB000A31DDB7F019883425FD9E31CDB7F012BF1
:101AC00005D0022B08D102986B001B5A07E0029A3E
:101AD000525D0092002619E0029AAB00D35A00939F
:101AE000F8E7009BDB0716D50398049B8119019842
:101AF0001A18201CFFF767FF012842D843424341D0
:101B0000FF180098013640080090B6B2631DDB7FD5
:101B1000B342E6D811E0059A002AF2D0039B04985C
:101B20009919019BC218201C6368FFF768FFE3E75F
:101B3000059A002A09D10136B6B2631DDA7F033354
:101B4000DB7FD3189E42F3DB0EE0039B04989919C8
:101B5000019BC218201C6368FFF751FF012810D8B1
:101B600043424341FF18E6E7231DDB7FED18019B4D
:101B7000ADB201339BB201939AE77842784100E01D
:101B8000052007B0F0BDF0B587B003930CAB041C83
:101B900001CB1B780593002C33D0002931D0231CB6
:101BA00028331B780220002B2CD08A18039E0D1C92
:101BB000049200270498854220D029780A2909D167
:101BC000A31DDB7F0C99039ECA18E31DDB7FD3188E
:101BD0000C9311E0059B201C0093321C0C9BFFF71B
:101BE0003EFF01280ED843424341FF18631DDA7FB0
:101BF0000333DB7FD318F6180135DBE778427841F1
:101C000000E0052007B0F0BD08B500280AD01C3060
:101C10001022002902D101F004FC03E001F0F8FBDE
:101C2000002000E0052008BD10B5084B1C78002CF2
:101C300001D0002009E001221A70054BE358002B67
:101C4000F7D0984704340028F7D010BD6401002075
:101C50000400002008B50A4A0B1C1278002A0AD09A
:101C600000280ADC2C22504306490918181C01F0F0
:101C7000CFFB002002E0044800E0044808BDC04655
:101C8000640100203801002005001180020011804D
:101C900008B50B4B011C1B78002B0DD0094A1368AB
:101CA000002B0BDC581C10602C2253430648C01834
:101CB00001F0AEFB002002E0044800E0044808BD4B
:101CC000640100203401002038010020050011804B
:101CD0000100118070B5802910D10949094D0C68A7
:101CE000802612013601A218AD190020AA4202D99D
:101CF0001860054803E01C600A6000E0034870BDFE
:101D00000C000020650100200100118002001180FC
:101D1000004870470400118008B500F01DF900F07C
:101D2000DBF8002008BD70B500240E1C1D1C20012E
:101D30003018AC4205D00021102201F072FB0134B2
:101D4000F5E7002070BDF7B500200F1C0A2100F058
:101D50002FF9062000F005F9089E6D460136B6B24F
:101D60000635012233021343281C02212B8000F088
:101D7000D3F80024099B200138189C4215D010216B
:101D800000F0CAF8099B013B9C4202D101235B424F
:101D900004E0731C1B191B02FF221343281C0221A1
:101DA0002B80013400F0B8F8E4E7022000F0D9F805
:101DB0000A21002000F00AF90020FEBD08B5032129
:101DC000052000F011F9002008BD08B5002904D055
:101DD0000821002000F0ECF803E0081C082100F0C6
:101DE000F5F8002008BD000010B58CB000F0B4F884
:101DF00000F072F800F0C4F80022131C0C2104203B
:101E000000F0C8F80022131C0A21042000F0C2F8D8
:101E100000200A21021C031C00F0BCF8002008214D
:101E2000021C031C00F0B6F80020011C021C031C5D
:101E300000F0B0F80022131C0321052000F0AAF8DE
:101E40001D480021402200F091F8041E31D11B4AA8
:101E500001A801920122027480224260C260826065
:101E6000174A44744261174A8261174AC261174A8D
:101E70000262174A4262174A8262FFF709FF041E94
:101E800017D1082100F094F80A21201C00F090F8E6
:101E9000062000F066F86846042302210230038021
:101EA00000F03AF8022000F05CF8201C0A2100F053
:101EB0008DF8201C0CB010BDBD1D00003C3B000087
:101EC000CB1D0000D51C0000111D0000471D0000A7
:101ED000271D0000191D000030B587B00A4A6B4667
:101EE00023CA23C323CA23C3084D09480121FEF78F
:101EF00063FD084B281C69460293FFF71EFB0A236B
:101F000000206B6507B030BD543B000000C00040AE
:101F100000320400E067350038B5041C0D1C002DAC
:101F200011D0012D01D0E20706D521780948FFF72D
:101F300034FB013D0134F2E721880648FFF732FB0C
:101F4000023D0234EBE7034B1B699A06FBD50020E8
:101F500038BDC04600C0004008B500F07BFB002043
:101F600008BD08B500F056FC002008BD08B5FEF716
:101F70006BFB002800D0014808BDC046020013805A
:101F800008B503480121FEF717FD002008BDC04633
:101F90000082040010B5141E05D1C0B20422FFF760
:101FA0000DF8201C00E0014810BDC0460100138060
:101FB00001238B40191CC0B224235843024BC01884
:101FC000016100207047C0460060004001238B4043
:101FD000191CC0B224235843024BC0184160002092
:101FE0007047C0461060004001238B40191CC0B2EE
:101FF00024235843024BC018816100207047C0461B
:10200000006000407FB50121041C1E48FEF7D4FC8F
:102010001D4B2168994233D11C480121FEF7CCFCAD
:10202000207961790A220123FEF7C8FF0A22A079EC
:10203000E1790123FEF7C2FF2579092260790123A6
:1020400024211E1C69438640301C114E013A891917
:10205000086060791E1C86404E60002AEED1227A0C
:10206000032112020A43206869460B704B70E36833
:10207000826301932269237D02920B73FFF70AF8B2
:102080007FBDC0464081040000A0004000B20400B3
:102090001060004038B5051CFFF732F9054C40B21E
:1020A000012806D1013C002C03D0281CFFF710F8B2
:1020B000F5E738BDE193040072B6044B1A68511C71
:1020C00001D001321A6018687047C046F000002045
:1020D000054B00201A68824204D0501E1860002868
:1020E00000D162B67047C046F0000020F7B5254920
:1020F0000190081C14300B7F002294464A779342CB
:102100003AD00A684B68019C6546634501D1A242FA
:1021100004D9121BAB410A604B602DE0CE7F002E2C
:1021200001D10E7723E08E68CF6892197B41121B94
:10213000AB410A604B60031F1B680268002B06DD81
:102140009B180360F32B12D90122002306E0D31A57
:102150000360F32B0BD901225242D3170E684F684C
:1021600092197B410A604B600368F43B03608F69FE
:10217000002F01D001234B77034A283128309142A8
:10218000B9D1F7BD68090020080A002010B5002465
:1021900028236343064AD3185A7F002A03D0196ABA
:1021A000201C9B6998470134042CF1D110BDC04616
:1021B00068090020F8B51D4B01241E1C6442A0369E
:1021C000221C197F002908D059681D688A4202D84C
:1021D00003D1AC4201D92C1C0A1C2833B342F0D1E4
:1021E000134E00233370631C01D1531C1DD0002AF1
:1021F00002D1104B9C4200D90E4C0F4B1A780F4B5A
:10220000002A03D10202120A1A6000E018600C4D85
:10221000041902272102AF61090A0020FFF7B4F870
:1022200001233370EB691F43EF61F8BD680900209B
:10223000650900209BFFFF00670900200C0A0020B1
:102240000000084038B5051CFFF736FF00232822A0
:102250005A430A498A18947F002C04D00133042B76
:10226000F5D1074C06E0002D03D0012191772B60BA
:1022700000E0044CFFF72CFF201C38BD680900204B
:10228000011000F0041000F038B51A4B1C78002C37
:102290002ED101251848291C1D70FEF78DFB17480B
:1022A0000221FEF749FD16480821FEF70BFB291C09
:1022B0001348FEF781FB1348FFF788F8124B0722FB
:1022C000D9699143D9619A61FFF790F80F4B802249
:1022D000C0215201A9405A500D481A60211CA02269
:1022E00001F09FF80B4B1C700B4B1C700B4B1C60D0
:1022F000002038BD660900200023020002001800FB
:10230000700610006C3B00000000084000E100E097
:10231000680900206709002065090020080A0020DC
:10232000F0B585B001900391151C1F1C032800D93E
:10233000C2E0FFF7C1FE019928244C43644B1C19ED
:10234000A37F002B03D1FFF7C3FE6248B5E0002D49
:1023500008D1002F02D001980A99B847FFF7B8FEBC
:102360000020AAE05C4E6B0C7268564954480292F9
:10237000EA0380185941A761534A544B00F0DEFB31
:10238000039BA060E160012B08D1FA239B005D4311
:10239000F42358437A23281A20616361019C282181
:1023A00061434B480122002341188C68CD68121903
:1023B0006B410A604B60494B039D0A9C1B780122CC
:1023C0000A77CD770C62071C002BC7D1444C2368D9
:1023D000013302D023689B182360424B1A78002AED
:1023E00020D1029D28202A02019D3F4B6843120AFA
:1023F0001A603F180223B3610ACF002B02D13B4B76
:10240000994200D93949029D002069180902090A38
:10241000FEF7BAFFF36902221343324DF361012341
:102420002B7041E02368012B3ED1019D28226A4395
:102430000023BA1813770393F369022293432A4DBA
:10244000F3612A680299881A00022949000A431890
:102450005A1E93415B421840FFF748FEFFF796FE75
:10246000039A002A05D1019928234B430122FB1826
:102470001A77039A029801320392FFF79BFE736862
:10248000296802935B1A1B021B0A00200093FEF7C7
:102490006DFF2B68134DC01A2B780002000A002B29
:1024A00002D0009D8542C7D82368002B00D155E794
:1024B0002368013B236051E70E4805B0F0BDC046DC
:1024C000A00F000000000000401F000000000000FE
:1024D00068090020031000F0000008406709002090
:1024E000080A0020650900200C0A00209BFFFF005D
:1024F000010000FF021000F0F8B5194DFFF7DCFDF8
:102500002B699A0728D5174B01226C681A70EB6962
:1025100002229343144EEB613368E01A0002000A72
:10252000FFF7E4FDFFF732FE201CFFF743FE6C6867
:1025300032680020A71AFEF719FF33683F02C01A5D
:102540000A4B00021B783F0A000A002B01D0874289
:10255000DDD8044A00231370FFF7BAFDF8BDC0466A
:1025600000000840670900200C0A002065090020CF
:10257000F0B589B003AC171C0422628001AA218047
:10258000137002AD01230226211C049223810695BB
:102590002682FFF77FFD002802D000233B6007E082
:1025A0006B78032293432A78301C12029B183B60FD
:1025B00009B0F0BDF8B51C1CE523071C0E1C151C4A
:1025C000FFF7D6FF022802D00120404216E02A6819
:1025D0000B4B381C53430B4A5B0B9B182B60311C75
:1025E000221CE023FFF7C4FF0228EDD12268064B2E
:1025F00000205343054A5B139B182360F8BDC04677
:10260000093D000090E8FFFFCD550000FE48FFFFA8
:1026100030B589B003AB141C042219805A80694676
:10262000FC220A70C9224A7000AA049202221A816E
:1026300008221A82191C01AD0695FFF72BFD002315
:10264000984204D19C4201D02B7823700123181C9E
:1026500009B030BDF0B58BB0654C09A865490322BF
:1026600000F0D6FE236C00200190590705D4624883
:102670000121FEF7A1F9012201926048FEF7DEF97F
:10268000E26A4023171C032106905C481F40FEF7B6
:1026900053FB5B48FEF7E2F8802107904900584859
:1026A000FEF710F9A36D002001240290234204D10B
:1026B0005348211CFEF780F9029472B6514B1A68F8
:1026C000511C01D001321A604F4C0126256835405B
:1026D00012D02268A368E068049300230392059057
:1026E000E5692360E3610723A3618021C023474A92
:1026F0004901B340D15003E00595049503952E1C84
:10270000002309A88370FEF761FE8022404B52012E
:102710001A603F4B1A6852001A600BD061686268F9
:102720009142FCD0384A52681B68013BFDD863686F
:102730009342EED0364B1A6852081A601B68092281
:10274000013A002A17D05B0815D0314908681843B0
:1027500008606068844660688445FCD02A48406808
:1027600009680139FDD861688142E9D028490868C3
:1027700098430860E4E7234A1368002B04D0013B28
:102780001360002B00D162B6002E11D007991C48AF
:10279000FEF798F80120FEF70FFE0499059A039BB7
:1027A000A1600020E2602360E561FEF705FE02E023
:1027B000301CFEF7F7FD0298002803D010480021D6
:1027C000FEF7FAF80699032902D00C48FEF7B4FA8E
:1027D000002F04D10120391C3A1CFEF773FA019A2C
:1027E000002A03D004480021FEF7E6F80BB0F0BD44
:1027F00000800C406F3B0000002302000200180024
:1028000070061000F00000200000084000E100E029
:10281000100000200849031C002B0CD0013B88222B
:102820001202003253430A68D80AD20A5043800980
:1028300001D00138FDD870471000002006488047BD
:102840000649074A074B9B1A03DD043BC858D05082
:10285000FBDCFDF74FFC000045290000983B000021
:102860000000002088000020FEE7C04600487047B6
:1028700000366E012149224BCA6A13408022520160
:1028800093420FD005D880221201934210D11D4BE4
:102890000CE080229201934207D08022D20493421E
:1028A00027D005E08020000226E0174B186823E0BF
:1028B000CA68E023DB00134080229200934212D0CA
:1028C00007D8002B11D08022520093420FD10F481D
:1028D00012E0C022920093420DD08022D200934297
:1028E00005D10B4808E00B4806E00B4804E0002047
:1028F00002E00A4800E00A487047C04600800C40E9
:10290000003C0004180000201400002040B56400C2
:10291000406F4001C0D8A700804F120000366E0102
:10292000809FD50008B5FFF7A5FF044B5A680F2319
:102930001340D840024B186008BDC04600800C40D0
:10294000240A00207047802000027047FA2080008F
:1029500070470000014B18687047C0461400002003
:1029600008B50B480121FEF727F80A480121FEF7B8
:1029700023F804210A1C05200023FEF71FFB052075
:10298000011C04220023FEF719FB002008BDC046ED
:10299000408104000082040001280DD8084BC000CB
:1029A000C15C1818436801229A4024234B4305490F
:1029B00000205B189A6101E0012040427047C04648
:1029C000743B00000060004002B4714649084900B1
:1029D000095C49008E4402BC7047C046002934D0CF
:1029E0000123002210B488422CD301242407A142E1
:1029F00004D2814202D209011B01F8E7E400A1429E
:102A000004D2814202D249005B00F8E7884201D338
:102A1000401A1A434C08A04202D3001B5C08224310
:102A20008C08A04202D3001B9C082243CC08A04281
:102A300002D3001BDC082243002803D01B0901D06D
:102A40000909E3E7101C10BC7047002801D00020E2
:102A5000C04307B4024802A14018029003BDC0461B
:102A6000D90000000029F0D003B5FFF7B9FF0EBC74
:102A70004243891A1847C046002941D010B4041CAB
:102A80004C40A44601230022002900D549420028D9
:102A900000D5404288422CD301242407A14204D20D
:102AA000814202D209011B01F8E7E400A14204D2ED
:102AB000814202D249005B00F8E7884201D3401A04
:102AC0001A434C08A04202D3001B5C0822438C0826
:102AD000A04202D3001B9C082243CC08A04202D390
:102AE000001BDC082243002803D01B0901D0090980
:102AF000E3E7101C6446002C00D5404210BC704730
:102B0000002806D003DB0020C043400801E08020FD
:102B1000000607B4024802A14018029003BDC04657
:102B2000190000000029EBD003B5FFF7A7FF0EBC8A
:102B30004243891A1847C0467047C046002B11D13E
:102B4000002A0FD1002900D1002802D00021C9435A
:102B5000081C07B4024802A14018029003BDC046F9
:102B6000D9FFFFFF03B4684601B5029800F044F8AE
:102B7000019B9E4602B00CBC7047C0469C460304B5
:102B8000F0B51B0C17043F0C150C1E1C041C000C8C
:102B90007E436B4347434543FB18300C181887426C
:102BA00002D980235B02ED18030CED1863465C43E9
:102BB0004A433604360CA118000480194919F0BDA7
:102BC000F0B583B0161C1F1C0090019100F02EF888
:102BD000041C0D1C221C2B1C301C391CFFF7CEFFC3
:102BE000009A019B121A8B410899201C0A604B60C5
:102BF000291C03B0F0BDC046F0B583B0141C1D1CE9
:102C00000090019100F0EAF9221C2B1C061C0F1CFD
:102C1000FFF7B4FF009A019B121A8B410899301CF0
:102C20000A604B60391C03B0F0BDC046F0B54446A5
:102C30005F4656464D46F0B41C1C85B0002900DAAC
:102C4000D9E00F1C0021061C8A46101C191C002C00
:102C500000DAC7E00196009089468046002950D1ED
:102C6000B84262D900F07AFB002809D020234546FB
:102C7000311C1B1A85408740D940A8460F43864027
:102C80004246140C13041B0C211C381C9B46FFF7F6
:102C9000A5FE5B464343051C211C381C9946FFF7E3
:102CA000E1FE330C08041843814509D940446B1EEA
:102CB000804500D977E1814500D874E1023D404468
:102CC0004946411A8946081C211CFFF787FE5A46CF
:102CD0004243071C211C48469346FFF7C3FE3604B7
:102CE0000904360C0E43B34507D946447B1EB04554
:102CF00002D8023FB34500D81F1C2D042F430024E7
:102D000003E0B94260D9002400275246381C211C38
:102D1000002A03D03B1C00215842A14105B03CBC15
:102D200090469946A246AB46F0BD002804D101204A
:102D30000021FFF753FE8046404600F00FFB0028BD
:102D400060D1414644460B043C1B1B0CA3460D0CB2
:102D500000930124291C5846FFF740FE009F81463E
:102D60004743291C5846FFF77DFE330C09041943DD
:102D70008F4208D94B464144013B884502D88F42D7
:102D800000D925E19946C91B8B46081C291CFFF771
:102D900025FE009B291C4343071C58460093FFF760
:102DA00061FE3604009D0904360C0E43B54207D976
:102DB00046447B1EB04502D8023FB54200D81F1CD6
:102DC00049460B041F43A0E7081C00F0C7FA041E85
:102DD00070D1B94503D3009C019DAC4293D8002427
:102DE000012792E75246D243031C0C1C9246002155
:102DF0005842A1412EE7002746428F410121494216
:102E00008A4622E720231B1A4246351C82403C1C7E
:102E1000DD40DC4087402B1C150C3B43291C8640C1
:102E2000201C009317049046FFF7D8FD3F0C011CAF
:102E3000794381468B46201C291CFFF713FE009C1A
:102E40000904230C19438B450CD94B464144013BE3
:102E5000884500D9BAE08B4500D8B7E0022252423B
:102E6000914441445C460C1B201C291C0194FFF733
:102E7000B5FD391C4143041C8B460198291CFFF702
:102E8000F1FD009A090413041B0C19438B4509D961
:102E90004144631E884500D994E08B4500D891E0F9
:102EA000023C41445B46CB1A49469B460B041C43FB
:102EB00000974FE7009D20231B1A4A460099824045
:102EC000DD40154381403A1CDA400091311C9046A8
:102ED000D9403A1C82400B1C134301932F0C2B0446
:102EE0001B0C391C40460293FFF778FD029A81467D
:102EF0004243391C40469346FFF7B4FD019A09044A
:102F0000130C19438B450AD94B464919013B8D4295
:102F10005AD88B4558D902235B42994449195A46DD
:102F20008A1A101C391C0392FFF758FD029B804639
:102F30004343391C03989B46FFF794FD019A09040B
:102F400013041B0C19438B450AD943464919013B0D
:102F50008D4235D88B4533D902235B4298444919B9
:102F60005D464D1BAB464946009D0F044246174344
:102F70002A04120C3B042D0C1B0C380C111C594359
:102F800042436B436843D3180D0C5B198C469A423D
:102F900002D98022520280181D0C401983450CD39F
:102FA00003D00024B1E61D1C8AE665462A041B04F2
:102FB000120C9B18A6409E42F3D2013F0024A4E6C7
:102FC0009846CDE71C1C6DE79946A8E7994649E766
:102FD0000222524291444144D5E6C046F0B55F46D4
:102FE00056464D464446F0B40D1C85B0061C92462C
:102FF00098460290019103921F1C141C8346A94617
:10300000002B52D1AA426BD9101C00F0A7F900285E
:103010000AD020231B1A311CD94085400B1C2B439E
:10302000864084409946B346250C23041B0C291C7A
:1030300048469846FFF7D2FC4646071C4643291CE3
:103040004846FFF70FFD5A460904130C19438E42F8
:1030500009D909197B1E8C4200D959E18E4200D84A
:1030600056E1023F0919891B8946081C291CFFF7F4
:10307000B5FC43464343061C291C48469846FFF7C7
:10308000F1FC5A46130409041B0C1943884508D95E
:103090000919731E8C4200D938E1023E884500D8D8
:1030A00034E138043043002712E0019A93420DD8EE
:1030B000181C00F053F9041E66D1019B9F4200D2F8
:1030C00021E1039F02998F4200D81CE100270020D4
:1030D000391C05B03CBC90469946A246AB46F0BDB3
:1030E000002A04D101200021FFF778FC041C201CD9
:1030F00000F034F9002800D0B6E023042D1B1B0C8F
:10310000A946260C98460127311C4846FFF766FC65
:1031100041464143051C8A464846311CFFF7A2FC44
:103120005A460804130C1843824507D900196B1E30
:10313000844202D8824500D90DE11D1C5346C31AB2
:10314000181C311C9A46FFF749FC41464143814611
:1031500088465046311CFFF785FC5A461304090483
:103160001B0C194388450BD94B460919013B8C426E
:1031700000D9CFE0884500D8CCE002235B429944D7
:10318000280449460843A3E720231B1A4246574612
:103190008240DF401743524682400192321CDA409F
:1031A000291CD9408540131C2B4302933D0C3B0442
:1031B0001B0C8846081C291C9A46FFF70FFC534637
:1031C00043438146291C40469B46FFF74BFC029A2D
:1031D0000904130C19438B4506D94B46C919013B09
:1031E0008F4200D8ABE099465A468A1A101C291C17
:1031F0009346FFF7F3FB53464343291C804658464A
:103200009A46FFF72FFC029A090415042D0C294356
:103210008A4506D94346C919013B8F4200D886E04A
:1032200098465746CF1BBA464946019F0804424676
:1032300010433D042D0C03043F0C1B0C020C291CF5
:10324000594355437B437A43EB180F0CDB198C46EB
:103250009D4202D980277F02D2191D0C5219924536
:1032600062D359D0002733E720231B1A311C2F1CAF
:10327000D940DF4085400B1C84402B43864001939E
:10328000B3462304260C1B0C381C311C9846FFF750
:10329000A5FB42464243051C311C381C9146FFF7F2
:1032A000E1FB019F09043B0C1943894507D9091922
:1032B0006B1E8C424DD889454BD9023D09194A46AF
:1032C0008A1A101C311C9246FFF788FB4346434381
:1032D000071C311C50469946FFF7C4FB019A0904AC
:1032E00013041B0C1943894507D909197B1E8C420D
:1032F0002DD889452BD9023F09194B46CB1A2D04ED
:1033000099462F4300E700270120E1E61E1CC8E68E
:103310001F1CA8E6994633E761460A041B04120CF9
:103320009B18A6409E429DD201380027D0E68A45D0
:1033300000D875E702235B429844C91971E78B45B1
:1033400000D850E702235B429944C9194CE71F1C7F
:10335000D3E71D1CB3E7023D0019EFE61C21012352
:103360001B04984201D3000C10391B0A984201D368
:10337000000A08391B09984201D30009043902A246
:10338000105C40187047C0460403020201010101AD
:103390000000000000000000084B10B5041C002BCA
:1033A00002D0002100E000BF054B1868836A002BA3
:1033B00000D09847201C00F043F8C04600000000F1
:1033C000883B000070B50E4B0E4D0024ED1AAD1079
:1033D0001E1CAC4204D0A300F35898470134F8E710
:1033E00000F030F8084B094D0024ED1AAD101E1CFA
:1033F000AC4204D0A300F35898470134F8E770BDFD
:103400007C0000207C0000207C0000208000002048
:1034100010B50023934203D0CC5CC4540133F9E7C8
:1034200010BD031C8218934202D019700133FAE7D1
:1034300070470023C25C0133002AFBD1581E70473D
:10344000FEE7C046F8B5C046F8BC08BC9E467047CB
:10345000F8B5C046F8BC08BC9E4670474C6F772054
:103460006261747465727921004661696C656420DB
:10347000746F206465746563740A73693730323120
:103480002073656E736F722E00736937303231208E
:1034900073656E736F722072656164792E0A44657C
:1034A0006D6F2076312E300000A000400307030628
:1034B0000100000000000000486B01000000000057
:1034C000000000000000000000C201000005000034
:1034D000001000000000000008091108EC34000092
:1034E00020030164060802000100000000040A0A2B
:1034F0000403060608020000000000000E040E1F70
:10350000081F0C1F0E0E00001000010E0E0E0F0EF5
:10351000071F1F0E110E1C110111110E0F0E0F1E91
:103520001F11111111111F0E000E040002000100E5
:1035300010000C000104080106000000000000005B
:10354000020000000000000C040600000000000063
:1035500000040A0A1E130904040404040000000005
:10356000110611080C0102101111060608000211C3
:10357000101111110901011111040809011B111188
:1035800011111101041111111111100200080A008A
:10359000040001001000121E0100000104000000E0
:1035A0000000000002000000000000020408020009
:1035B0000000000000040A1F0108050202081504AB
:1035C00000000010190410040A0F0108111106066A
:1035D000041F04101011110111010101110408054B
:1035E0000115131111111101041111110A11080211
:1035F00001081100080E0D0E160E02110D060C0921
:10360000040B0D0E0F160D0E0711111111111F02D3
:1036100004081500000000000004000A0E04020067
:1036200002080E1F001F00081504080809100F04E7
:103630000E1E00000200080816110F01110F0F1DC9
:103640001F040803011515110F110F0E0411111598
:10365000040A0402020800000010130119110711E6
:103660001304080504151311111913010211111186
:103670000A11080104100800000000000000001FEB
:1036800010021500020815040600000413040410BB
:103690001F10110211100606041F0404151F11014A
:1036A000110101111104080501111911011505106D
:1036B000041111150A04020204080000001E110181
:1036C000111F021E11040803041511110F1E010E13
:1036D00002111115041E040204080000000000007D
:1036E0000000000A0F190900040404040400060283
:1036F0001104021108111102110806040800020049
:1037000015111111090101111104090901111111FA
:103710000109091004110A1511040102080800002A
:1037200000111111110102101104090504111111E8
:103730000110011012190A150A10020204080000F3
:10374000000000000004000A04181600080200002F
:10375000020006010E0E1F0E080E0E020E060002DB
:10376000100001040E110F0E071F010E110E06119D
:103770001F11110E0116110F040E040A11041F0E61
:10378000100E001F001E0F0E1E0E020E110E060957
:103790000E11110E0110010F0C16040A110E1F0C50
:1037A000040600000000000000000000000000000F
:1037B0000000000000000000000000000000000009
:1037C00000000000000000000000000000000000F9
:1037D00000000000000000000000000000000000E9
:1037E00000000000000000000000000000000000D9
:1037F00000000000000000000000000000000000C9
:103800000000000000000000000000001C38000064
:1038100020030164080802000100000000186C6C1D
:1038200010CE3808600C0000000000007C307C7C6A
:10383000C6FE7CFE7C7C000070001C7C7C7C7E7C58
:103840007EFEFE7CC63C78C606C6C67C7E7C7E7C40
:103850007EC6C6C6C6C6FE7C007C10000C000600F4
:1038600060003800060000060C00000000000000A8
:10387000000000000000003018188C00000000005C
:1038800000186CFEFC6A2C1830186C18000000C080
:10389000C638C6C6C606C6C0C6C61818387C38C6DE
:1038A000C6C6C6C6C60606C6C618306606EECEC66C
:1038B000C6C6C6C618C6C6C6C6C6C00C0660380090
:1038C0000C00060060000C00061830060C0000001A
:1038D0000000000018000000000000181830D6009A
:1038E00000000000001848FE162E2C18183038185A
:1038F00000000060C63060C0C6060660C6C6181864
:103900001C7C70C6F6C6C606C6060606C618303645
:1039100006FEDEC6C6C6C60618C6C6C66CC6600C9F
:103920000C606C00043C3E3C7C3C3C3C3E00006631
:103930000C6E3E3C3E3C363C186666C666667E189B
:1039400018306200000000000018006C7C10DC00E1
:103950001830FE7E1C7E0030C6303070FE7E7E3019
:103960007CFC00000E00E070F6FE7E06C61E1EF611
:10397000FE18301E06D6F6C67EC67E7C18C6C6D693
:1039800038FC300C1860C6000060660666660C667F
:10399000661830360CD6666666666E067C6666C647
:1039A0003C66300C0060000000000000000000FEDB
:1039B000D0E866001830387E1C7E1C18C63018C04F
:1039C000C0C0C618C6C018181C7C703076C6C606A3
:1039D000C60606C6C618303606C6E6C606B6C6C051
:1039E00018C6C6FE6CC0180C30600000007C66066D
:1039F000667E0C7C6618301E0CD666663E56063C0B
:103A0000186666D6187C18181830000000000000F0
:103A1000001800FE7EAC660030186C1818001C0CF4
:103A2000C6300CC6C0C6C60CC6C61818387C3800CE
:103A300006C6C6C6C60606C6C618366606C6C6C6C4
:103A40000666C6C618C66CEEC6C00C0C606000FEEA
:103A50000066660666060C60661836360CC6666634
:103A60000626066018663CD63C600C18183000002C
:103A7000000000000018006C10E6DC00600C00186C
:103A80000C001C067C78FE7CC07C7C067C7C000CD8
:103A900070001C307CC67E7C7EFE06FCC63C1CC6CC
:103AA000FEC6C67C06DCC67C187C38C6C67EFE7C9C
:103AB000C07C00FE007C3E3C7C3C0C3E66701C667C
:103AC00038C6663C065C063E707C18FC663E7E305E
:103AD00018180000000000000000000000000000B6
:103AE00000000000000000000000000000000000D6
:103AF00000000000000000000000000000000000C6
:103B000000000000000000000000000000000000B5
:103B100000000000000000000000000000000000A5
:103B20000000000000000000000000000000000095
:103B300000000000000000000000000053686172F7
:103B400070204C53303133423744483033202331D6
:103B500000000000050000000000000040420F00CF
:103B6000050100000000000000000000010000014D
:103B70000001000005000000040000000500000036
:103B800005000000430000001C00002000000000B1
:083B900064C5FF7F0100000085
:103B980001010000E91D000000000000650100208F
:103BA800001000000080000000366E0100000000D8
:103BB80000000000000000000000000000000000FD
:103BC800000000000000000000000000843B00002E
:103BD80000000000000000000000000000000000DD
:103BE80000000000000000000000000000000000CD
:103BF80000000000000000000000000000000000BD
:103C0800000000000000000000000000BD000000EF
:083C180095000000000000000F
:040000030000283D94
:00000001FF
